{
  "contractName": "MerkleTreeWithHistoryMock",
  "abi": [
    {
      "inputs": [
        {
          "internalType": "uint32",
          "name": "_treeLevels",
          "type": "uint32"
        },
        {
          "internalType": "contract IHasher",
          "name": "_hasher",
          "type": "address"
        }
      ],
      "stateMutability": "nonpayable",
      "type": "constructor"
    },
    {
      "inputs": [],
      "name": "FIELD_SIZE",
      "outputs": [
        {
          "internalType": "uint256",
          "name": "",
          "type": "uint256"
        }
      ],
      "stateMutability": "view",
      "type": "function"
    },
    {
      "inputs": [],
      "name": "ROOT_HISTORY_SIZE",
      "outputs": [
        {
          "internalType": "uint32",
          "name": "",
          "type": "uint32"
        }
      ],
      "stateMutability": "view",
      "type": "function"
    },
    {
      "inputs": [],
      "name": "ZERO_VALUE",
      "outputs": [
        {
          "internalType": "uint256",
          "name": "",
          "type": "uint256"
        }
      ],
      "stateMutability": "view",
      "type": "function"
    },
    {
      "inputs": [],
      "name": "currentRootIndex",
      "outputs": [
        {
          "internalType": "uint32",
          "name": "",
          "type": "uint32"
        }
      ],
      "stateMutability": "view",
      "type": "function"
    },
    {
      "inputs": [
        {
          "internalType": "uint256",
          "name": "",
          "type": "uint256"
        }
      ],
      "name": "filledSubtrees",
      "outputs": [
        {
          "internalType": "bytes32",
          "name": "",
          "type": "bytes32"
        }
      ],
      "stateMutability": "view",
      "type": "function"
    },
    {
      "inputs": [],
      "name": "getLastRoot",
      "outputs": [
        {
          "internalType": "bytes32",
          "name": "",
          "type": "bytes32"
        }
      ],
      "stateMutability": "view",
      "type": "function"
    },
    {
      "inputs": [
        {
          "internalType": "contract IHasher",
          "name": "_hasher",
          "type": "address"
        },
        {
          "internalType": "bytes32",
          "name": "_left",
          "type": "bytes32"
        },
        {
          "internalType": "bytes32",
          "name": "_right",
          "type": "bytes32"
        }
      ],
      "name": "hashLeftRight",
      "outputs": [
        {
          "internalType": "bytes32",
          "name": "",
          "type": "bytes32"
        }
      ],
      "stateMutability": "pure",
      "type": "function"
    },
    {
      "inputs": [],
      "name": "hasher",
      "outputs": [
        {
          "internalType": "contract IHasher",
          "name": "",
          "type": "address"
        }
      ],
      "stateMutability": "view",
      "type": "function"
    },
    {
      "inputs": [
        {
          "internalType": "bytes32",
          "name": "_root",
          "type": "bytes32"
        }
      ],
      "name": "isKnownRoot",
      "outputs": [
        {
          "internalType": "bool",
          "name": "",
          "type": "bool"
        }
      ],
      "stateMutability": "view",
      "type": "function"
    },
    {
      "inputs": [],
      "name": "levels",
      "outputs": [
        {
          "internalType": "uint32",
          "name": "",
          "type": "uint32"
        }
      ],
      "stateMutability": "view",
      "type": "function"
    },
    {
      "inputs": [],
      "name": "nextIndex",
      "outputs": [
        {
          "internalType": "uint32",
          "name": "",
          "type": "uint32"
        }
      ],
      "stateMutability": "view",
      "type": "function"
    },
    {
      "inputs": [
        {
          "internalType": "uint256",
          "name": "",
          "type": "uint256"
        }
      ],
      "name": "roots",
      "outputs": [
        {
          "internalType": "bytes32",
          "name": "",
          "type": "bytes32"
        }
      ],
      "stateMutability": "view",
      "type": "function"
    },
    {
      "inputs": [
        {
          "internalType": "uint256",
          "name": "i",
          "type": "uint256"
        }
      ],
      "name": "zeros",
      "outputs": [
        {
          "internalType": "bytes32",
          "name": "",
          "type": "bytes32"
        }
      ],
      "stateMutability": "pure",
      "type": "function"
    },
    {
      "inputs": [
        {
          "internalType": "bytes32",
          "name": "_leaf",
          "type": "bytes32"
        }
      ],
      "name": "insert",
      "outputs": [],
      "stateMutability": "nonpayable",
      "type": "function"
    }
  ],
  "bytecode": "0x60c0604052600280546001600160401b03191690553480156200002157600080fd5b50604051620016ab380380620016ab833981810160405260408110156200004757600080fd5b508051602090910151818163ffffffff8216620000965760405162461bcd60e51b8152600401808060200182810382526023815260200180620016886023913960400191505060405180910390fd5b60208263ffffffff1610620000f2576040805162461bcd60e51b815260206004820152601e60248201527f5f6c6576656c732073686f756c64206265206c657373207468616e2033320000604482015290519081900360640190fd5b6001600160e01b031960e083901b1660a0526001600160601b0319606082901b1660805260005b8263ffffffff168163ffffffff1610156200015e576200013f63ffffffff8216620001aa565b63ffffffff821660009081526020819052604090205560010162000119565b506200017463ffffffff600019840116620001aa565b6000805260016020527fa6eef7e35abe7026729641147f7915573c7e97b47efa546f5f6e3230263bcb4955506200083892505050565b600081620001da57507f2fe54c60d3acabf3343a35b6eba15db4821b340f76e741e2249685ed4899af6c62000833565b81600114156200020c57507f256a6135777eee2fd26f54b8b7037a25439d5235caee224154186d2b8a52e31d62000833565b81600214156200023e57507f1151949895e82ab19924de92c40a3d6f7bcb60d92b00504b8199613683f0c20062000833565b81600314156200027057507f20121ee811489ff8d61f09fb89e313f14959a0f28bb428a20dba6b0b068b3bdb62000833565b8160041415620002a257507f0a89ca6ffa14cc462cfedb842c30ed221a50a3d6bf022a6a57dc82ab24c157c962000833565b8160051415620002d457507f24ca05c2b5cd42e890d6be94c68d0689f4f21c9cec9c0f13fe41d566dfb5495962000833565b81600614156200030657507f1ccb97c932565a92c60156bdba2d08f3bf1377464e025cee765679e604a7315c62000833565b81600714156200033857507f19156fbd7d1a8bf5cba8909367de1b624534ebab4f0f79e003bccdd1b182bdb462000833565b81600814156200036a57507f261af8c1f0912e465744641409f622d466c3920ac6e5ff37e36604cb11dfff8062000833565b81600914156200039b57507e58459724ff6ca5a1652fcbc3e82b93895cf08e975b19beab3f54c217d1c00762000833565b81600a1415620003cd57507f1f04ef20dee48d39984d8eabe768a70eafa6310ad20849d4573c3c40c2ad1e3062000833565b81600b1415620003ff57507f1bea3dec5dab51567ce7e200a30f7ba6d4276aeaa53e2686f962a46c66d511e562000833565b81600c14156200043157507f0ee0f941e2da4b9e31c3ca97a40d8fa9ce68d97c084177071b3cb46cd3372f0f62000833565b81600d14156200046357507f1ca9503e8935884501bbaf20be14eb4c46b89772c97b96e3b2ebf3a36a948bbd62000833565b81600e14156200049557507f133a80e30697cd55d8f7d4b0965b7be24057ba5dc3da898ee2187232446cb10862000833565b81600f1415620004c757507f13e6d8fc88839ed76e182c2a779af5b2c0da9dd18c90427a644f7e148a6253b662000833565b8160101415620004f957507f1eb16b057a477f4bc8f572ea6bee39561098f78f15bfb3699dcbb7bd8db6185462000833565b81601114156200052b57507f0da2cb16a1ceaabf1c16b838f7a9e3f2a3a3088d9e0a6debaa748114620696ea62000833565b81601214156200055d57507f24a3b3d822420b14b5d8cb6c28a574f01e98ea9e940551d2ebd75cee12649f9d62000833565b81601314156200058f57507f198622acbd783d1b0d9064105b1fc8e4d8889de95c4c519b3f635809fe6afc0562000833565b8160141415620005c157507f29d7ed391256ccc3ea596c86e933b89ff339d25ea8ddced975ae2fe30b5296d462000833565b8160151415620005f357507f19be59f2f0413ce78c0c3703a3a5451b1d7f39629fa33abd11548a76065b296762000833565b81601614156200062557507f1ff3f61797e538b70e619310d33f2a063e7eb59104e112e95738da1254dc345362000833565b81601714156200065757507f10c16ae9959cf8358980d9dd9616e48228737310a10e2b6b731c1a548f036c4862000833565b81601814156200068957507f0ba433a63174a90ac20992e75e3095496812b652685b5e1a2eae0b1bf4e8fcd162000833565b8160191415620006bb57507f019ddb9df2bc98d987d0dfeca9d2b643deafab8f7036562e627c3667266a044c62000833565b81601a1415620006ed57507f2d3c88b23175c5a5565db928414c66d1912b11acf974b2e644caaac04739ce9962000833565b81601b14156200071f57507f2eab55f6ae4e66e32c5189eed5c470840863445760f5ed7e7b69b2a62600f35462000833565b81601c14156200075057507e2df37a2642621802383cf952bf4dd1f32e05433beeb1fd41031fb7eace979d62000833565b81601d14156200078257507f104aeb41435db66c3e62feccc1d6f5d98d0a0ed75d1374db457cf462e3a1f42762000833565b81601e1415620007b457507f1f3c6fd858e9a7d4b0d1f38e256a09d81d5a5e3c963987e2d4b814cfab7c6ebb62000833565b81601f1415620007e657507f2c7a07d20dff79d01fecedc1134284a8d08436606c93693b67e333f671bf69cc62000833565b6040805162461bcd60e51b815260206004820152601360248201527f496e646578206f7574206f6620626f756e647300000000000000000000000000604482015290519081900360640190fd5b919050565b60805160601c60a05160e01c610e1762000871600039806102705280610bd55280610c41525080610b735280610ccd5250610e176000f3fe608060405234801561001057600080fd5b50600436106100ea5760003560e01c8063c2b40ae41161008c578063ec73295911610066578063ec732959146101fe578063ed33639f14610206578063f178e47c1461022a578063fc7e9c6f14610247576100ea565b8063c2b40ae4146101bc578063cd87a3b4146101d9578063e8295588146101e1576100ea565b80636d9833e3116100c85780636d9833e3146101495780638ea3099e1461017a57806390eeb02b146101ac578063ba70f757146101b4576100ea565b80632d287e43146100ef578063414a37ba1461010e5780634ecf518b14610128575b600080fd5b61010c6004803603602081101561010557600080fd5b503561024f565b005b61011661025c565b60408051918252519081900360200190f35b61013061026e565b6040805163ffffffff9092168252519081900360200190f35b6101666004803603602081101561015f57600080fd5b5035610292565b604080519115158252519081900360200190f35b6101166004803603606081101561019057600080fd5b506001600160a01b038135169060208101359060400135610304565b6101306104d0565b6101166104dc565b610116600480360360208110156101d257600080fd5b50356104f7565b610130610509565b610116600480360360208110156101f757600080fd5b503561050e565b610116610b4d565b61020e610b71565b604080516001600160a01b039092168252519081900360200190f35b6101166004803603602081101561024057600080fd5b5035610b95565b610130610ba7565b61025881610bbb565b5050565b600080516020610d9283398151915281565b7f000000000000000000000000000000000000000000000000000000000000000081565b6000816102a1575060006102ff565b60025463ffffffff16805b63ffffffff81166000908152600160205260409020548414156102d4576001925050506102ff565b63ffffffff81166102e35750601e5b6000190163ffffffff80821690831614156102ac576000925050505b919050565b6000600080516020610d928339815191528310610368576040805162461bcd60e51b815260206004820181905260248201527f5f6c6566742073686f756c6420626520696e7369646520746865206669656c64604482015290519081900360640190fd5b600080516020610d9283398151915282106103b45760405162461bcd60e51b8152600401808060200182810382526021815260200180610d716021913960400191505060405180910390fd5b6040805163f47d33b560e01b8152600481018590526000602482018190528251869391926001600160a01b0389169263f47d33b592604480840193829003018186803b15801561040357600080fd5b505afa158015610417573d6000803e3d6000fd5b505050506040513d604081101561042d57600080fd5b5080516020909101519092509050600080516020610d928339815191528483089150856001600160a01b031663f47d33b583836040518363ffffffff1660e01b81526004018083815260200182815260200192505050604080518083038186803b15801561049a57600080fd5b505afa1580156104ae573d6000803e3d6000fd5b505050506040513d60408110156104c457600080fd5b50519695505050505050565b60025463ffffffff1681565b60025463ffffffff1660009081526001602052604090205490565b60016020526000908152604090205481565b601e81565b60008161053c57507f2fe54c60d3acabf3343a35b6eba15db4821b340f76e741e2249685ed4899af6c6102ff565b816001141561056c57507f256a6135777eee2fd26f54b8b7037a25439d5235caee224154186d2b8a52e31d6102ff565b816002141561059c57507f1151949895e82ab19924de92c40a3d6f7bcb60d92b00504b8199613683f0c2006102ff565b81600314156105cc57507f20121ee811489ff8d61f09fb89e313f14959a0f28bb428a20dba6b0b068b3bdb6102ff565b81600414156105fc57507f0a89ca6ffa14cc462cfedb842c30ed221a50a3d6bf022a6a57dc82ab24c157c96102ff565b816005141561062c57507f24ca05c2b5cd42e890d6be94c68d0689f4f21c9cec9c0f13fe41d566dfb549596102ff565b816006141561065c57507f1ccb97c932565a92c60156bdba2d08f3bf1377464e025cee765679e604a7315c6102ff565b816007141561068c57507f19156fbd7d1a8bf5cba8909367de1b624534ebab4f0f79e003bccdd1b182bdb46102ff565b81600814156106bc57507f261af8c1f0912e465744641409f622d466c3920ac6e5ff37e36604cb11dfff806102ff565b81600914156106eb57507e58459724ff6ca5a1652fcbc3e82b93895cf08e975b19beab3f54c217d1c0076102ff565b81600a141561071b57507f1f04ef20dee48d39984d8eabe768a70eafa6310ad20849d4573c3c40c2ad1e306102ff565b81600b141561074b57507f1bea3dec5dab51567ce7e200a30f7ba6d4276aeaa53e2686f962a46c66d511e56102ff565b81600c141561077b57507f0ee0f941e2da4b9e31c3ca97a40d8fa9ce68d97c084177071b3cb46cd3372f0f6102ff565b81600d14156107ab57507f1ca9503e8935884501bbaf20be14eb4c46b89772c97b96e3b2ebf3a36a948bbd6102ff565b81600e14156107db57507f133a80e30697cd55d8f7d4b0965b7be24057ba5dc3da898ee2187232446cb1086102ff565b81600f141561080b57507f13e6d8fc88839ed76e182c2a779af5b2c0da9dd18c90427a644f7e148a6253b66102ff565b816010141561083b57507f1eb16b057a477f4bc8f572ea6bee39561098f78f15bfb3699dcbb7bd8db618546102ff565b816011141561086b57507f0da2cb16a1ceaabf1c16b838f7a9e3f2a3a3088d9e0a6debaa748114620696ea6102ff565b816012141561089b57507f24a3b3d822420b14b5d8cb6c28a574f01e98ea9e940551d2ebd75cee12649f9d6102ff565b81601314156108cb57507f198622acbd783d1b0d9064105b1fc8e4d8889de95c4c519b3f635809fe6afc056102ff565b81601414156108fb57507f29d7ed391256ccc3ea596c86e933b89ff339d25ea8ddced975ae2fe30b5296d46102ff565b816015141561092b57507f19be59f2f0413ce78c0c3703a3a5451b1d7f39629fa33abd11548a76065b29676102ff565b816016141561095b57507f1ff3f61797e538b70e619310d33f2a063e7eb59104e112e95738da1254dc34536102ff565b816017141561098b57507f10c16ae9959cf8358980d9dd9616e48228737310a10e2b6b731c1a548f036c486102ff565b81601814156109bb57507f0ba433a63174a90ac20992e75e3095496812b652685b5e1a2eae0b1bf4e8fcd16102ff565b81601914156109eb57507f019ddb9df2bc98d987d0dfeca9d2b643deafab8f7036562e627c3667266a044c6102ff565b81601a1415610a1b57507f2d3c88b23175c5a5565db928414c66d1912b11acf974b2e644caaac04739ce996102ff565b81601b1415610a4b57507f2eab55f6ae4e66e32c5189eed5c470840863445760f5ed7e7b69b2a62600f3546102ff565b81601c1415610a7a57507e2df37a2642621802383cf952bf4dd1f32e05433beeb1fd41031fb7eace979d6102ff565b81601d1415610aaa57507f104aeb41435db66c3e62feccc1d6f5d98d0a0ed75d1374db457cf462e3a1f4276102ff565b81601e1415610ada57507f1f3c6fd858e9a7d4b0d1f38e256a09d81d5a5e3c963987e2d4b814cfab7c6ebb6102ff565b81601f1415610b0a57507f2c7a07d20dff79d01fecedc1134284a8d08436606c93693b67e333f671bf69cc6102ff565b6040805162461bcd60e51b8152602060048201526013602482015272496e646578206f7574206f6620626f756e647360681b604482015290519081900360640190fd5b7f2fe54c60d3acabf3343a35b6eba15db4821b340f76e741e2249685ed4899af6c81565b7f000000000000000000000000000000000000000000000000000000000000000081565b60006020819052908152604090205481565b600254640100000000900463ffffffff1681565b6002805460009163ffffffff6401000000009092048216917f0000000000000000000000000000000000000000000000000000000000000000811690910a16811415610c385760405162461bcd60e51b8152600401808060200182810382526030815260200180610db26030913960400191505060405180910390fd5b8083600080805b7f000000000000000000000000000000000000000000000000000000000000000063ffffffff168163ffffffff161015610d095760018516610cac57839250610c8d8163ffffffff1661050e565b63ffffffff821660009081526020819052604090208590559150610cc8565b63ffffffff811660009081526020819052604090205492508391505b610cf37f00000000000000000000000000000000000000000000000000000000000000008484610304565b9350600263ffffffff8616049450600101610c3f565b505060028054601e63ffffffff8083166001908101821692909206811663ffffffff1990931683178455600092835260208290526040909220949094558154938601166401000000000267ffffffff0000000019909316929092179091555090939250505056fe5f72696768742073686f756c6420626520696e7369646520746865206669656c6430644e72e131a029b85045b68181585d2833e84879b9709143e1f593f00000014d65726b6c6520747265652069732066756c6c2e204e6f206d6f7265206c65617665732063616e206265206164646564a26469706673582212202a93620a219dca9750942ff67c5e6b0b80dfe9bd1b1a28db7a150a01fb5e4ba964736f6c634300070600335f6c6576656c732073686f756c642062652067726561746572207468616e207a65726f",
  "immutableReferences": {
    "480": [
      {
        "length": 32,
        "start": 2931
      },
      {
        "length": 32,
        "start": 3277
      }
    ],
    "482": [
      {
        "length": 32,
        "start": 624
      },
      {
        "length": 32,
        "start": 3029
      },
      {
        "length": 32,
        "start": 3137
      }
    ]
  },
  "source": "// SPDX-License-Identifier: MIT\npragma solidity ^0.7.0;\n\nimport \"../MerkleTreeWithHistory.sol\";\n\ncontract MerkleTreeWithHistoryMock is MerkleTreeWithHistory {\n  constructor(uint32 _treeLevels, IHasher _hasher) MerkleTreeWithHistory(_treeLevels, _hasher) {}\n\n  function insert(bytes32 _leaf) public {\n    _insert(_leaf);\n  }\n}\n",
  "sourcePath": "/Users/ahmed/projects/edgeware/anon/contracts/evm/anchor/contracts/Mocks/MerkleTreeWithHistoryMock.sol",
  "compiler": {
    "name": "solc",
    "version": "0.7.6+commit.7338295f.Emscripten.clang"
  },
  "schemaVersion": "3.3.4",
  "updatedAt": "2021-05-06T09:15:15.401Z",
  "devdoc": {
    "kind": "dev",
    "methods": {
      "getLastRoot()": {
        "details": "Returns the last root"
      },
      "hashLeftRight(address,bytes32,bytes32)": {
        "details": "Hash 2 tree leaves, returns MiMC(_left, _right)"
      },
      "isKnownRoot(bytes32)": {
        "details": "Whether the root is present in the root history"
      },
      "zeros(uint256)": {
        "details": "provides Zero (Empty) elements for a MiMC MerkleTree. Up to 32 levels"
      }
    },
    "version": 1
  },
  "userdoc": {
    "kind": "user",
    "methods": {},
    "version": 1
  }
}